{
    "_format": "hh-sol-artifact-1",
    "contractName": "Voting",
    "sourceName": "contracts/VotingSystem.sol",
    "abi": [
        {
            "inputs": [],
            "stateMutability": "nonpayable",
            "type": "constructor"
        },
        {
            "inputs": [],
            "name": "admin",
            "outputs": [
                {
                    "internalType": "address",
                    "name": "",
                    "type": "address"
                }
            ],
            "stateMutability": "view",
            "type": "function"
        },
        {
            "inputs": [
                {
                    "internalType": "uint256",
                    "name": "",
                    "type": "uint256"
                }
            ],
            "name": "candidateAddresses",
            "outputs": [
                {
                    "internalType": "address",
                    "name": "",
                    "type": "address"
                }
            ],
            "stateMutability": "view",
            "type": "function"
        },
        {
            "inputs": [
                {
                    "internalType": "address",
                    "name": "",
                    "type": "address"
                }
            ],
            "name": "candidates",
            "outputs": [
                {
                    "internalType": "string",
                    "name": "name",
                    "type": "string"
                },
                {
                    "internalType": "string",
                    "name": "party",
                    "type": "string"
                },
                {
                    "internalType": "address",
                    "name": "candidateAddress",
                    "type": "address"
                },
                {
                    "internalType": "uint256",
                    "name": "voteCount",
                    "type": "uint256"
                }
            ],
            "stateMutability": "view",
            "type": "function"
        },
        {
            "inputs": [],
            "name": "electionStatus",
            "outputs": [
                {
                    "internalType": "enum Voting.ElectionStatus",
                    "name": "",
                    "type": "uint8"
                }
            ],
            "stateMutability": "view",
            "type": "function"
        },
        {
            "inputs": [],
            "name": "endElection",
            "outputs": [],
            "stateMutability": "nonpayable",
            "type": "function"
        },
        {
            "inputs": [],
            "name": "getAllCandidates",
            "outputs": [
                {
                    "internalType": "address[]",
                    "name": "",
                    "type": "address[]"
                }
            ],
            "stateMutability": "view",
            "type": "function"
        },
        {
            "inputs": [
                {
                    "internalType": "address",
                    "name": "_candidateAddress",
                    "type": "address"
                }
            ],
            "name": "getCandidateDetails",
            "outputs": [
                {
                    "internalType": "string",
                    "name": "",
                    "type": "string"
                },
                {
                    "internalType": "string",
                    "name": "",
                    "type": "string"
                },
                {
                    "internalType": "uint256",
                    "name": "",
                    "type": "uint256"
                }
            ],
            "stateMutability": "view",
            "type": "function"
        },
        {
            "inputs": [
                {
                    "internalType": "address",
                    "name": "_candidateAddress",
                    "type": "address"
                },
                {
                    "internalType": "string",
                    "name": "_name",
                    "type": "string"
                },
                {
                    "internalType": "string",
                    "name": "_party",
                    "type": "string"
                }
            ],
            "name": "registerCandidate",
            "outputs": [],
            "stateMutability": "nonpayable",
            "type": "function"
        },
        {
            "inputs": [
                {
                    "internalType": "address",
                    "name": "_voterAddress",
                    "type": "address"
                }
            ],
            "name": "registerVoter",
            "outputs": [],
            "stateMutability": "nonpayable",
            "type": "function"
        },
        {
            "inputs": [],
            "name": "startElection",
            "outputs": [],
            "stateMutability": "nonpayable",
            "type": "function"
        },
        {
            "inputs": [
                {
                    "internalType": "address",
                    "name": "_candidateAddress",
                    "type": "address"
                }
            ],
            "name": "vote",
            "outputs": [],
            "stateMutability": "nonpayable",
            "type": "function"
        },
        {
            "inputs": [
                {
                    "internalType": "address",
                    "name": "",
                    "type": "address"
                }
            ],
            "name": "voters",
            "outputs": [
                {
                    "internalType": "bool",
                    "name": "isRegistered",
                    "type": "bool"
                },
                {
                    "internalType": "bool",
                    "name": "hasVoted",
                    "type": "bool"
                },
                {
                    "internalType": "address",
                    "name": "votedFor",
                    "type": "address"
                }
            ],
            "stateMutability": "view",
            "type": "function"
        }
    ],
    "bytecode": "0x608060405234801561001057600080fd5b50336000806101000a81548173ffffffffffffffffffffffffffffffffffffffff021916908373ffffffffffffffffffffffffffffffffffffffff1602179055506000600460006101000a81548160ff0219169083600281111561009d577f4e487b7100000000000000000000000000000000000000000000000000000000600052602160045260246000fd5b0217905550611d39806100b16000396000f3fe608060405234801561001057600080fd5b50600436106100b45760003560e01c80636dd7d8ea116100715780636dd7d8ea146101555780638ab66a9014610171578063a3ec138d146101a4578063d55d73c5146101d6578063eaef034914610206578063f851a44014610224576100b4565b80632e6997fe146100b957806338db6dd3146100d757806340b68257146100f357806353ac5dc31461010f57806359f784681461014157806362d73eb81461014b575b600080fd5b6100c1610242565b6040516100ce91906117e8565b60405180910390f35b6100f160048036038101906100ec919061139c565b6102d0565b005b61010d600480360381019061010891906113c5565b6104f2565b005b6101296004803603810190610124919061139c565b6107be565b604051610138939291906118af565b60405180910390f35b6101496109b1565b005b610153610b54565b005b61016f600480360381019061016a919061139c565b610cf7565b005b61018b6004803603810190610186919061139c565b61102d565b60405161019b949392919061185c565b60405180910390f35b6101be60048036038101906101b9919061139c565b61118d565b6040516101cd9392919061180a565b60405180910390f35b6101f060048036038101906101eb9190611444565b6111f1565b6040516101fd91906117cd565b60405180910390f35b61020e611230565b60405161021b9190611841565b60405180910390f35b61022c611243565b60405161023991906117cd565b60405180910390f35b606060038054806020026020016040519081016040528092919081815260200182805480156102c657602002820191906000526020600020905b8160009054906101000a900473ffffffffffffffffffffffffffffffffffffffff1673ffffffffffffffffffffffffffffffffffffffff168152602001906001019080831161027c575b5050505050905090565b60008054906101000a900473ffffffffffffffffffffffffffffffffffffffff1673ffffffffffffffffffffffffffffffffffffffff163373ffffffffffffffffffffffffffffffffffffffff161461035e576040517f08c379a000000000000000000000000000000000000000000000000000000000815260040161035590611974565b60405180910390fd5b600160008273ffffffffffffffffffffffffffffffffffffffff1673ffffffffffffffffffffffffffffffffffffffff16815260200190815260200160002060000160009054906101000a900460ff16156103ee576040517f08c379a00000000000000000000000000000000000000000000000000000000081526004016103e590611934565b60405180910390fd5b6040518060600160405280600115158152602001600015158152602001600073ffffffffffffffffffffffffffffffffffffffff16815250600160008373ffffffffffffffffffffffffffffffffffffffff1673ffffffffffffffffffffffffffffffffffffffff16815260200190815260200160002060008201518160000160006101000a81548160ff02191690831515021790555060208201518160000160016101000a81548160ff02191690831515021790555060408201518160000160026101000a81548173ffffffffffffffffffffffffffffffffffffffff021916908373ffffffffffffffffffffffffffffffffffffffff16021790555090505050565b60008054906101000a900473ffffffffffffffffffffffffffffffffffffffff1673ffffffffffffffffffffffffffffffffffffffff163373ffffffffffffffffffffffffffffffffffffffff1614610580576040517f08c379a000000000000000000000000000000000000000000000000000000000815260040161057790611974565b60405180910390fd5b600073ffffffffffffffffffffffffffffffffffffffff16600260008573ffffffffffffffffffffffffffffffffffffffff1673ffffffffffffffffffffffffffffffffffffffff16815260200190815260200160002060020160009054906101000a900473ffffffffffffffffffffffffffffffffffffffff1673ffffffffffffffffffffffffffffffffffffffff1614610651576040517f08c379a000000000000000000000000000000000000000000000000000000000815260040161064890611954565b60405180910390fd5b60405180608001604052808381526020018281526020018473ffffffffffffffffffffffffffffffffffffffff1681526020016000815250600260008573ffffffffffffffffffffffffffffffffffffffff1673ffffffffffffffffffffffffffffffffffffffff16815260200190815260200160002060008201518160000190805190602001906106e4929190611267565b506020820151816001019080519060200190610701929190611267565b5060408201518160020160006101000a81548173ffffffffffffffffffffffffffffffffffffffff021916908373ffffffffffffffffffffffffffffffffffffffff160217905550606082015181600301559050506003839080600181540180825580915050600190039060005260206000200160009091909190916101000a81548173ffffffffffffffffffffffffffffffffffffffff021916908373ffffffffffffffffffffffffffffffffffffffff160217905550505050565b606080600080600260008673ffffffffffffffffffffffffffffffffffffffff1673ffffffffffffffffffffffffffffffffffffffff16815260200190815260200160002060405180608001604052908160008201805461081e90611b79565b80601f016020809104026020016040519081016040528092919081815260200182805461084a90611b79565b80156108975780601f1061086c57610100808354040283529160200191610897565b820191906000526020600020905b81548152906001019060200180831161087a57829003601f168201915b505050505081526020016001820180546108b090611b79565b80601f01602080910402602001604051908101604052809291908181526020018280546108dc90611b79565b80156109295780601f106108fe57610100808354040283529160200191610929565b820191906000526020600020905b81548152906001019060200180831161090c57829003601f168201915b505050505081526020016002820160009054906101000a900473ffffffffffffffffffffffffffffffffffffffff1673ffffffffffffffffffffffffffffffffffffffff1673ffffffffffffffffffffffffffffffffffffffff1681526020016003820154815250509050806000015181602001518260600151935093509350509193909250565b60008054906101000a900473ffffffffffffffffffffffffffffffffffffffff1673ffffffffffffffffffffffffffffffffffffffff163373ffffffffffffffffffffffffffffffffffffffff1614610a3f576040517f08c379a0000000000000000000000000000000000000000000000000000000008152600401610a3690611974565b60405180910390fd5b60016002811115610a79577f4e487b7100000000000000000000000000000000000000000000000000000000600052602160045260246000fd5b600460009054906101000a900460ff166002811115610ac1577f4e487b7100000000000000000000000000000000000000000000000000000000600052602160045260246000fd5b14610b01576040517f08c379a0000000000000000000000000000000000000000000000000000000008152600401610af8906119b4565b60405180910390fd5b6002600460006101000a81548160ff02191690836002811115610b4d577f4e487b7100000000000000000000000000000000000000000000000000000000600052602160045260246000fd5b0217905550565b60008054906101000a900473ffffffffffffffffffffffffffffffffffffffff1673ffffffffffffffffffffffffffffffffffffffff163373ffffffffffffffffffffffffffffffffffffffff1614610be2576040517f08c379a0000000000000000000000000000000000000000000000000000000008152600401610bd990611974565b60405180910390fd5b60006002811115610c1c577f4e487b7100000000000000000000000000000000000000000000000000000000600052602160045260246000fd5b600460009054906101000a900460ff166002811115610c64577f4e487b7100000000000000000000000000000000000000000000000000000000600052602160045260246000fd5b14610ca4576040517f08c379a0000000000000000000000000000000000000000000000000000000008152600401610c9b906118f4565b60405180910390fd5b6001600460006101000a81548160ff02191690836002811115610cf0577f4e487b7100000000000000000000000000000000000000000000000000000000600052602160045260246000fd5b0217905550565b60016002811115610d31577f4e487b7100000000000000000000000000000000000000000000000000000000600052602160045260246000fd5b600460009054906101000a900460ff166002811115610d79577f4e487b7100000000000000000000000000000000000000000000000000000000600052602160045260246000fd5b14610db9576040517f08c379a0000000000000000000000000000000000000000000000000000000008152600401610db090611994565b60405180910390fd5b6000600160003373ffffffffffffffffffffffffffffffffffffffff1673ffffffffffffffffffffffffffffffffffffffff16815260200190815260200160002090508060000160009054906101000a900460ff16610e4d576040517f08c379a0000000000000000000000000000000000000000000000000000000008152600401610e44906119d4565b60405180910390fd5b8060000160019054906101000a900460ff1615610e9f576040517f08c379a0000000000000000000000000000000000000000000000000000000008152600401610e96906119f4565b60405180910390fd5b600073ffffffffffffffffffffffffffffffffffffffff16600260008473ffffffffffffffffffffffffffffffffffffffff1673ffffffffffffffffffffffffffffffffffffffff16815260200190815260200160002060020160009054906101000a900473ffffffffffffffffffffffffffffffffffffffff1673ffffffffffffffffffffffffffffffffffffffff161415610f71576040517f08c379a0000000000000000000000000000000000000000000000000000000008152600401610f6890611914565b60405180910390fd5b60018160000160016101000a81548160ff021916908315150217905550818160000160026101000a81548173ffffffffffffffffffffffffffffffffffffffff021916908373ffffffffffffffffffffffffffffffffffffffff160217905550600260008373ffffffffffffffffffffffffffffffffffffffff1673ffffffffffffffffffffffffffffffffffffffff168152602001908152602001600020600301600081548092919061102490611bab565b91905055505050565b600260205280600052604060002060009150905080600001805461105090611b79565b80601f016020809104026020016040519081016040528092919081815260200182805461107c90611b79565b80156110c95780601f1061109e576101008083540402835291602001916110c9565b820191906000526020600020905b8154815290600101906020018083116110ac57829003601f168201915b5050505050908060010180546110de90611b79565b80601f016020809104026020016040519081016040528092919081815260200182805461110a90611b79565b80156111575780601f1061112c57610100808354040283529160200191611157565b820191906000526020600020905b81548152906001019060200180831161113a57829003601f168201915b5050505050908060020160009054906101000a900473ffffffffffffffffffffffffffffffffffffffff16908060030154905084565b60016020528060005260406000206000915090508060000160009054906101000a900460ff16908060000160019054906101000a900460ff16908060000160029054906101000a900473ffffffffffffffffffffffffffffffffffffffff16905083565b6003818154811061120157600080fd5b906000526020600020016000915054906101000a900473ffffffffffffffffffffffffffffffffffffffff1681565b600460009054906101000a900460ff1681565b60008054906101000a900473ffffffffffffffffffffffffffffffffffffffff1681565b82805461127390611b79565b90600052602060002090601f01602090048101928261129557600085556112dc565b82601f106112ae57805160ff19168380011785556112dc565b828001600101855582156112dc579182015b828111156112db5782518255916020019190600101906112c0565b5b5090506112e991906112ed565b5090565b5b808211156113065760008160009055506001016112ee565b5090565b600061131d61131884611a45565b611a14565b90508281526020810184848401111561133557600080fd5b611340848285611b37565b509392505050565b60008135905061135781611cd5565b92915050565b600082601f83011261136e57600080fd5b813561137e84826020860161130a565b91505092915050565b60008135905061139681611cec565b92915050565b6000602082840312156113ae57600080fd5b60006113bc84828501611348565b91505092915050565b6000806000606084860312156113da57600080fd5b60006113e886828701611348565b935050602084013567ffffffffffffffff81111561140557600080fd5b6114118682870161135d565b925050604084013567ffffffffffffffff81111561142e57600080fd5b61143a8682870161135d565b9150509250925092565b60006020828403121561145657600080fd5b600061146484828501611387565b91505092915050565b60006114798383611485565b60208301905092915050565b61148e81611aca565b82525050565b61149d81611aca565b82525050565b60006114ae82611a85565b6114b88185611aa8565b93506114c383611a75565b8060005b838110156114f45781516114db888261146d565b97506114e683611a9b565b9250506001810190506114c7565b5085935050505092915050565b61150a81611adc565b82525050565b61151981611b25565b82525050565b600061152a82611a90565b6115348185611ab9565b9350611544818560208601611b46565b61154d81611cb0565b840191505092915050565b6000611565601983611ab9565b91507f43616e6e6f7420737461727420656c656374696f6e206e6f77000000000000006000830152602082019050919050565b60006115a5601183611ab9565b91507f496e76616c69642063616e6469646174650000000000000000000000000000006000830152602082019050919050565b60006115e5601883611ab9565b91507f566f74657220616c7265616479207265676973746572656400000000000000006000830152602082019050919050565b6000611625601c83611ab9565b91507f43616e64696461746520616c72656164792072656769737465726564000000006000830152602082019050919050565b6000611665602283611ab9565b91507f4f6e6c792061646d696e2063616e20706572666f726d2074686973206163746960008301527f6f6e0000000000000000000000000000000000000000000000000000000000006020830152604082019050919050565b60006116cb601783611ab9565b91507f456c656374696f6e206973206e6f74206f6e676f696e670000000000000000006000830152602082019050919050565b600061170b601783611ab9565b91507f43616e6e6f7420656e6420656c656374696f6e206e6f770000000000000000006000830152602082019050919050565b600061174b601e83611ab9565b91507f596f7520617265206e6f742061207265676973746572656420766f74657200006000830152602082019050919050565b600061178b601683611ab9565b91507f596f75206861766520616c726561647920766f746564000000000000000000006000830152602082019050919050565b6117c781611b1b565b82525050565b60006020820190506117e26000830184611494565b92915050565b6000602082019050818103600083015261180281846114a3565b905092915050565b600060608201905061181f6000830186611501565b61182c6020830185611501565b6118396040830184611494565b949350505050565b60006020820190506118566000830184611510565b92915050565b60006080820190508181036000830152611876818761151f565b9050818103602083015261188a818661151f565b90506118996040830185611494565b6118a660608301846117be565b95945050505050565b600060608201905081810360008301526118c9818661151f565b905081810360208301526118dd818561151f565b90506118ec60408301846117be565b949350505050565b6000602082019050818103600083015261190d81611558565b9050919050565b6000602082019050818103600083015261192d81611598565b9050919050565b6000602082019050818103600083015261194d816115d8565b9050919050565b6000602082019050818103600083015261196d81611618565b9050919050565b6000602082019050818103600083015261198d81611658565b9050919050565b600060208201905081810360008301526119ad816116be565b9050919050565b600060208201905081810360008301526119cd816116fe565b9050919050565b600060208201905081810360008301526119ed8161173e565b9050919050565b60006020820190508181036000830152611a0d8161177e565b9050919050565b6000604051905081810181811067ffffffffffffffff82111715611a3b57611a3a611c81565b5b8060405250919050565b600067ffffffffffffffff821115611a6057611a5f611c81565b5b601f19601f8301169050602081019050919050565b6000819050602082019050919050565b600081519050919050565b600081519050919050565b6000602082019050919050565b600082825260208201905092915050565b600082825260208201905092915050565b6000611ad582611afb565b9050919050565b60008115159050919050565b6000819050611af682611cc1565b919050565b600073ffffffffffffffffffffffffffffffffffffffff82169050919050565b6000819050919050565b6000611b3082611ae8565b9050919050565b82818337600083830152505050565b60005b83811015611b64578082015181840152602081019050611b49565b83811115611b73576000848401525b50505050565b60006002820490506001821680611b9157607f821691505b60208210811415611ba557611ba4611c52565b5b50919050565b6000611bb682611b1b565b91507fffffffffffffffffffffffffffffffffffffffffffffffffffffffffffffffff821415611be957611be8611bf4565b5b600182019050919050565b7f4e487b7100000000000000000000000000000000000000000000000000000000600052601160045260246000fd5b7f4e487b7100000000000000000000000000000000000000000000000000000000600052602160045260246000fd5b7f4e487b7100000000000000000000000000000000000000000000000000000000600052602260045260246000fd5b7f4e487b7100000000000000000000000000000000000000000000000000000000600052604160045260246000fd5b6000601f19601f8301169050919050565b60038110611cd257611cd1611c23565b5b50565b611cde81611aca565b8114611ce957600080fd5b50565b611cf581611b1b565b8114611d0057600080fd5b5056fea2646970667358221220f9b975abbe46a96e3bd787784e130a4ae6b75ee553f7fe9a03414a331432f97264736f6c63430008000033",
    "linkReferences": {},
    "deployedLinkReferences": {}
}